:020000040800F2
:2000000000200020A1310008F1310008F13100080000000000000000000000000000000072
:20002000000000000000000000000000F13100080000000000000000F1310008E54200083D
:20004000F1310008F1310008A13C0008F1310008F1310008CB350008E13500089D35000813
:20006000F1310008B1330008F1310008F1310008F1310008F1310008F1310008193B00083C
:20008000F1310008F131000800000000F1310008F1310008F1310008F1310008F13100083A
:2000A000F1310008F1310008F1310008F1310008F131000800000000F13100080000000044
:2000C00010B5064C2378002B07D1054B002B02D0044800E000BF0123237010BDDC000020B3
:2000E0000000000094900008044B10B5002B03D00349044800E000BF10BDC04600000000B8
:20010000E00000209490000802B4714649084900095C49008E4402BC7047C0460022430844
:200120008B4274D303098B425FD3030A8B4244D3030B8B4228D3030C8B420DD3FF220902F1
:2001400012BA030C8B4202D31212090265D0030B8B4219D300E0090AC30B8B4201D3CB03C7
:20016000C01A5241830B8B4201D38B03C01A5241430B8B4201D34B03C01A5241030B8B4263
:2001800001D30B03C01A5241C30A8B4201D3CB02C01A5241830A8B4201D38B02C01A524140
:2001A000430A8B4201D34B02C01A5241030A8B4201D30B02C01A5241CDD2C3098B4201D363
:2001C000CB01C01A524183098B4201D38B01C01A524143098B4201D34B01C01A524103090E
:2001E0008B4201D30B01C01A5241C3088B4201D3CB00C01A524183088B4201D38B00C01AB0
:20020000524143088B4201D34B00C01A5241411A00D20146524110467047FFE701B50020D7
:2002200000F0F0F802BDC0460029F7D076E7704703460B437FD4002243088B4274D30309A6
:200240008B425FD3030A8B4244D3030B8B4228D3030C8B420DD3FF22090212BA030C8B4248
:2002600002D31212090265D0030B8B4219D300E0090AC30B8B4201D3CB03C01A5241830B53
:200280008B4201D38B03C01A5241430B8B4201D34B03C01A5241030B8B4201D30B03C01A81
:2002A0005241C30A8B4201D3CB02C01A5241830A8B4201D38B02C01A5241430A8B4201D3ED
:2002C0004B02C01A5241030A8B4201D30B02C01A5241CDD2C3098B4201D3CB01C01A5241F7
:2002E00083098B4201D38B01C01A524143098B4201D34B01C01A524103098B4201D30B0179
:20030000C01A5241C3088B4201D3CB00C01A524183088B4201D38B00C01A524143088B4290
:2003200001D34B00C01A5241411A00D201465241104670475DE0CA0F00D04942031000D3C6
:200340004042534000229C4603098B422DD3030A8B4212D3FC22890112BA030A8B420CD3BF
:20036000890192118B4208D3890192118B4204D389013AD0921100E08909C3098B4201D3C1
:20038000CB01C01A524183098B4201D38B01C01A524143098B4201D34B01C01A524103094C
:2003A0008B4201D30B01C01A5241C3088B4201D3CB00C01A524183088B4201D38B00C01AEE
:2003C0005241D9D243088B4201D34B00C01A5241411A00D20146634652415B10104601D3F6
:2003E0004042002B00D54942704763465B1000D3404201B5002000F005F802BD0029F8D05D
:020000040800F2
:2004000016E770477047C0469140031C90409C46203A9340194352426346D34019437047DD
:200420008446081C6146FFE71FB500F0B3FC002801D40021C8421FBD10B500F045FC404252
:20044000013010BD10B500F0A5FC002801DB002010BD012010BDC04610B500F09BFC0028EF
:2004600001DD002010BD012010BDC04610B500F051FC002801DC002010BD012010BDC046D5
:2004800010B500F047FC002801DA002010BD012010BDC046002B11D1002A0FD1002900D16F
:2004A000002802D00021C943081C07B4024802A14018029003BDC0464DFFFFFF03B46846EA
:2004C00001B5029800F066F8019B9E4602B00CBC7047C046F0B5CE46474615042D0C2E0001
:2004E00080B50704140C3F0C9946030C7E435D43674363437F19340CE4199C46A54203D938
:2005000080235B029846C4444B46514343433604360C250C24046544A4195918491920001C
:200520000CBC90469946F0BD9E2110B5C905041CFFF7A6FF002803D1201C00F041FF10BD4F
:200540009E21201CC90500F087FD00F039FF80231B069C466044F2E770B500220C4B040071
:200560000D0002F0E9FC002804D12000290002F067FB70BD064B00222000290002F04AF8E0
:2005800002F05EFB80231B069C466044F1E7C0460000E041F0B557464E464546DE46E0B5AD
:2005A000040083B00D00924699468B422FD82CD04946504602F0E8FC29000600200002F034
:2005C000E3FC331A9846203B9B4600D574E053465A4693401F005346424693401E00AF427E
:2005E00029D826D05B46A41BBD41002B00DA79E0002200230092019301235A4693400193B2
:20060000012342469340009319E08242D0D900220023009201930C9B002B01D01C605D601B
:200620000098019903B03CBC90469946A246AB46F0BDA342D6D9002200230092019343461A
:20064000002BE8D0FB0772081A4346467B080EE0AB4201D1A2420CD8A41A9D410120241960
:200660006D410021013E24184D41002E06D0AB42EED9013E24196D41002EF8D15B46009890
:20068000019900196941002B22DB2B005A46D3402A004446E2401C005B461500002B2CDB1D
:2006A00026009E40330026004746BE403200801A994100900191AEE7424620239B1A5246DD
:2006C000DA40414613004A468A4017001F4382E7424620239B1A2A0046469A402300F340C4
:2006E0001343D5E74246202300219B1A0022009101920122DA40019282E7424620232600D7
:200700009B1ADE402F00B446974066463B003343C9E7C046F0B5C6464E024702760A7B0AA4
:200720004400C50FF7004800984600B5240E2A00DB00000EC90FBC468D4267D0221A002A44
:2007400000DCA5E000283AD1002F00D193E0511E002900D0BCE00124DB1B5A0146D59B0161
:200760009E09300002F0F2FB05388640844200DD9DE0041B320020200134E240041BA640B3
:2007800033005E1EB341002413435A0704D00F221A40042A00D004335A0129D50134FF2C8E
:2007A00000D181E02A009B015B0AE4B25B02E405580AD2072043104304BC9046F0BDFF2CA1
:2007C000E3D080213800C904084384461B2A00DD82E020206146D140821A6046904002001B
:2007E000501E82410A439B1A5A01B8D45A07CED1DE082A00FF2C3AD1002E00D1AEE0802369
:020000040800F2
:20080000DB0333435B025B0AFF24CFE7211A002952DD002831D0FF2CB7D080203E00C004D9
:200820000643B4461B2900DDAAE020266046C840711A66468E4031004E1EB14101435B188B
:200840005901D3D50134FF2C00D187E0012278491A405B080B40134397E7002C00D0A7E0BB
:20086000002B00D0B6E03B1E62D10026002273025B0AE4B29AE7140087E7002F4DD0481EEE
:20088000002857D1634401245A01AFD50224DDE7002A24D1621CD2B2012ADEDDDE1B720100
:2008A00035D5FE1A0D005CE72A0000237EE73300604A241A134068E7002963D1611CC8B203
:2008C00001284EDDFF2949D063445B080C005CE7FF2A41D00A0079E701229B1A84E7002C17
:2008E0001DD0FF2822D08024E404524223431B2A00DD8AE01C002025D440AA1A93405A1E5C
:200900009341234362460400D31A0D0025E7002E00D026E700220024A9E70C0035E7002BB7
:200920004DD0D243002AEDD0FF28E0D16346FF240D002AE7FF290FD0010073E7002B61D01E
:20094000FF24002F00D120E780224146D203114202D0164200D13B00FF2416E7FF24002380
:2009600024E7002CEAD1002B58D0002F00D10CE763445A0100D439E72E4A0C00134004E787
:2009800001215CE7002C1ED1002B40D0C94300290BD0FF2836D01B2947DC1C002026CC408A
:2009A000711A8B40591E8B4123436344040047E7002B18D13B1E2DD00D00FF24E5E63B00BF
:2009C00004000D00E1E6FF281CD08024E40449422343E0E7002F00D1D7E6DE1B72011FD5CB
:2009E000FB1A0D00D1E6FF24002F00D1CDE680224046D2031042AFD01642ADD13B000D005C
:200A0000FF24C2E66346FF24BFE601237AE73B000400BAE680260022F603F0E63B00B4E6CA
:200A2000331E00D0E2E6002221E70123BDE7C046FFFFFF7DFFFFFFFBF0B557464E46DE4669
:200A40004546E0B544024300C60F83B00F1C640A1B0EB24653D0FF2B27D08022E400D2048B
:200A600014437F22524290469844002399469B467D027800FB0F6D0A000E009324D0FF2821
:200A800046D080230021ED00DB041D437F384746381A4F460F43BF00B9463300009A874F72
:200AA00053404A46BA5801939746002C4ED108239946F7339846FD3B9B467D027800FB0F19
:200AC0006D0A000E0093DAD1002D26D1002001213300009A7A4F53404246101A4A460A4335
:200AE0009200BA581D009746009B2C009A468B465B46022B31D15346FF21002438E0002CEF
:200B000017D1042399460023984601339B46AFE7FF20002D0BD10221DAE7280002F016FA05
:200B2000431F9D4076235B42181A0021AFE70321ADE7200002F00AFA431F9C4076235B4215
:200B40001B1A9846002399469B4691E70C239946F3339846FC3B9B468AE7032B00D1A5E008
:200B60005546012B00D081E00123002100242B406402C905600ADB070843184303B03CBCD8
:200B800090469946A246AB46F0BD80240023E403FF21EDE7FF210024EAE70123591A1B2988
:200BA00066DD019A134000210024E1E78023DB031C4238D01D4251D01C436402640A33002A
:200BC000FF21D5E763016C01A3423BD21B260021013801251F0049005B00002F01DB9C4209
:200BE00001D81B1B2943013E002EF3D11C00631E9C410C4301007F310029CEDD630704D0BD
:020000040800F2
:200C00000F232340042B00D00434230103D501002C4B80311C40FE290DDD0123019AFF2197
:200C200013400024A4E78023DB031C436402640A3300FF219CE70123019AA401640AC9B2DB
:200C4000134095E71B1B1A260121C2E7009B8B469A4600244CE76302E5D500258024E40312
:200C60002C436402640A009BFF2181E70195C1E723002020CB40411A8C40611E8C411C4390
:200C8000630704D00F232340042B00D00434630105D50123019A01211340002468E7012341
:200CA000019AA401640A1340002161E78023DB031C436402640A5346FF2159E7FC90000889
:200CC0003C910008FFFFFFF770B5420045024E024C00C30F6D0A120E760A240EC90F0120ED
:200CE000FF2A06D0FF2C03D0A24201D1B54206D070BD002DFCD1FF2CFAD1002EF8D18B4293
:200D000006D00120002AF3D12800451EA841EFE70020EDE7F0B5420045024C02C30F48001A
:200D20006D0A120E640A000EC90FFF2A1ED0FF2821D0002A0AD16E426E41F6B200280FD185
:200D4000002C0DD10020002D09D005E0002801D1002C01D08B4211D0012158420843F0BD25
:200D6000002EF7D0012001390843F8E7002DDED002204042F3E7002CDBD0F9E78242EBDC5E
:200D800004DBA542E8D80020A542E8D20121581E0843E4E7F0B542004D024C004602760A14
:200DA000120EC30F6D0A240EC90FFF2A16D0FF2C18D0002A0AD170427041C0B2002C15D0B3
:200DC000002805D0012001390843F0BD002C13D0994214D001205B421843F6E70220002EAF
:200DE000F3D1E4E70220002DEFD1E2E7002DE7D10020002EE9D0EDE7002DE9D1EAE7A24230
:200E000006DCDFDBAE4203D80020AE42DAD3DCE7012049420843D8E7F8B557464E464546CC
:200E2000DE46E0B54702460088467F0A360EC40F002E47D0FF2E24D0FB008027FF041F438F
:200E4000002399469A467F3E43465D025800DB0F6D0A000E984643D0FF283BD0EB00802591
:200E60000022ED041D437F383618731C41469B464B46614013430F2B64D875489B00C35892
:200E80009F46002F42D108239946063BFF269A46DAE74146022A28D0032A00D1CEE0012A98
:200EA00000D0ACE0114000200022CCB24002D205400AE407104320433CBC90469946A2462C
:200EC000AB46F8BD002F15D104239946033B00269A46B9E7FF200222002DC5D00322C3E799
:200EE000002D19D100200122BEE70124FF220C400020DBE7380002F029F87626431F9F4057
:200F000000237642361A99469A469DE70C239946093BFF269A4697E7280002F017F8431F03
:200F20009D4076235B42181A00229DE780200024C003FF22BAE73D005246ABE73D002100B8
:200F40005246A7E73B0C9C462A04120C2B0C1400604665463F043F0C7C4342435D437B432A
:200F6000270C9B18FF18BA4203D980235B029C46654424043A04240C121993015C1EA3415E
:200F80003F0C920E7D191A43AD0115432B0104D501235E466A081D40154332007F32002A6C
:200FA00025DD6B0704D00F232B40042B00D004352B0103D53200274B80321D40FE2A94DCC5
:200FC0000124A801400AD2B20C406FE78020C003074207D0054205D128434002400A4446B2
:200FE000FF2263E738434002400AFF225EE70124A31A1B2B05DD0C400022002056E75E46A0
:020000040800F2
:20100000CBE72A002020DA40C31A9D402B005D1EAB4113435A0704D00F221A40042A00D03A
:2010200004335A0104D5012401220C4000203DE701249B01580A0C40002237E780200124F9
:20104000C00328434002400A0C40FF222EE7C0467C910008FFFFFFF7F0B54F46D646464663
:201060004400C0B5C20F47024802400A844666467B0A4800C90F9A46240E1500DB00000EDE
:201080008946F600FF2800D18FE001214F464F403900914266D0221A002A00DC9DE00028B5
:2010A0003DD1002E00D18BE0511E002900D0B5E001249B1B5A0144D59B019F09380001F0FF
:2010C00045FF05388740844200DD96E0041B3A0020200134E240041BA7403B005F1EBB4105
:2010E000002413435A0704D00F221A40042A00D004335A0127D50134FF2C00D179E001227D
:201100009B015B0AE4B22A405B02E405580AD207204310431CBC90469946A246F0BDFF2C4A
:20112000E0D08021C9040E431B2A7BDC31002020D140821A9640721E96410E439B1B5A01E7
:20114000BAD45A07D0D10122DF082A40FF2C33D1002F00D1A8E08023DB033B435B025B0A13
:20116000FF24D1E7211A00294CDD00282AD0FF2CB8D08020C00406431B2900DDAFE03000A5
:201180002027C840791A8E40711E8E4106439B195901D6D50134FF2C00D185E001227A49C3
:2011A0001A405B080B4013439CE7002E00D070E76BE73B1EC5D100227B025B0AE4B2A3E794
:2011C00014008FE7002E4DD0481E002857D19B1901245A01B5D50224E0E7002A25D1621C3B
:2011E000D2B2012A72DD9F1B7A0135D5F71A0D0064E7012200232A4086E73B00634A241A06
:2012000013406FE700296CD1611CC8B201284EDDFF2949D09B195B080C0063E7FF2A41D08C
:201220000A0081E701269B1B89E7002C1CD0FF2821D08024E404524223431B2A00DD96E0A1
:201240001C002025D440AA1A93405A1E93412343F31A04000D002DE7002F00D02EE7002268
:201260000024A9E70C003DE7002B58D0D243002AEED0FF28E1D13300FF240D0032E7FF29BD
:2012800010D0010078E7002B6ED0FF24002E00D128E780225146D203114203D06146114246
:2012A00000D13300FF241DE7FF2400232CE7002CE9D1002B63D0002E00D113E79B195A015E
:2012C00000D43EE7314A0C0013400BE7002C1ED1002B2FD1002E4FD033000D0002E7012666
:2012E00055E7002C1FD1002B43D0C94300290BD0FF2839D01B2944DC1C002027CC40791AB2
:201300008B40591E8B4123439B19040040E7002B1AD1002E24D180270022FF031BE7330041
:2013200004000D00DEE6FF281ED08024E40449422343DFE7002E00D1D4E69F1B7A0100D4BE
:2013400037E7F31A0D00CDE6FF24002E00D1C9E680225046D2031042A4D060461042A1D194
:2013600033000D00FF24BDE63300FF24BAE601236EE733000400B5E6002700221CE73300A7
:20138000B0E60123C0E7C046FFFFFF7DFFFFFFFB42024B0240004900520A000E5B0A090E74
:2013A000FF2803D00020FF2906D07047FE38002AFBD10020FF29F8D11800431E9841F4E7F4
:2013C00041024300C20F490A1B0E00207E2B0DDD9D2B0CDC802000040143952B0ADC962093
:2013E000C31AD9404842002A00D108007047034BD018FBE7963B9940F4E7C046FFFFFF7F94
:020000040800F2
:2014000010B5041E27D001F0A1FD9E231B1A962B0ADC9622D21A94406402640ADBB2640283
:20142000DB05600A184310BD992B17DC9922D21A002A27DD94402200134C1440510704D0D9
:201440000F210A40042A00D00434620112D4A401640ADBB2E3E700230024E0E7B92221001F
:20146000D21A91400A00511E8A410521091ACC401443DBE7044B1C409F23A4011B1A640A48
:20148000DBB2CCE72200D7E7FFFFFFFBF8B54546DE4657464E460C03E0B54E00C90F88460F
:2014A0000D00610A440F0C43C70019035800DB0F9B464B0A510F0B43760D400D1900D2004E
:2014C000D84500D1AEE0351A002D00DCF6E000280FD1134300D1DBE06B1E002B00D037E1DC
:2014E000BA1A9742BF41641A7F42E41B0126170024E0C64B9E424DD080231B041943382D2E
:2015000000DD07E11F2D00DD38E12020431B9A460B0050468340994613004846EB401843DC
:20152000030050468240501E8241E9401A43BA1A611A9742A441170064420C1B230262D54C
:201540006402650A002D00D1DFE0280001F0FEFC0300083B1F2B00DDD2E020223C00D21A5D
:201560009D40D4409F4025439E4200DDC4E09E1B731C1F2B00DDF1E0202238002900D21A03
:20158000D840914097402C000143781E8741DC4000260F437B0709D00F233B40042B05D01D
:2015A0003B1DBB42BF417F42E4191F0023022CD5964B01369E4200D19AE04546944BFF081F
:2015C0001C406007760564020743240B760D00212403230B0C0D8F4A24051C4314403305EF
:2015E00023435B00ED075B082B43380019003CBC90469946A246AB46F8BD6446044300D117
:2016000011E2040067467B07C6D145466007FF080743E4087D4B9E4230D024037605240B65
:20162000760DD4E7331A9A46002B78DD002831D076488642AED08020000401435346382BAE
:2016400000DCE9E00A43511E8A410021D219BA42BF4109197C4217000C192302D3D56B4BB7
:2016600001369E4200D13AE10120694B1C407B0807401F43E007074364088BE723003B435A
:2016800000D1CBE18022120314432403240B9EE72E007FE70800104300D1B4E0581E0028F2
:2016A00000D0DEE0BA18BA429B4164185B42E418170001262302A6D50226D5E7002D6ED1AF
:2016C000701C4005400D012800DCF9E0B81A844687428041E51A40422D1A280200D489E0B9
:2016E000D71BBA4292411C1B5242A51AD84629E74546002400276AE7454CF61A2C4049E70D
:201700003D002838854000272EE7380001F01EFC20301DE70A43511E8A41002107E7002BD3
:2017200000D0F3E0701C43055B0D012B00DCADE0364B984200D1D1E0BA18BA42BF4164180E
:201740007F42E419E707520817436408060021E72E48854200D193E01D00D0E629001F3ED5
:20176000F140202B00D18DE04022D31A9D402F437D1EAF4100240F43002644E72B0008008C
:20178000203BD8400300202D00D17DE04020451BA9400A43511E8A4100211A43C7E6002ECF
:2017A00050D01A4EB04257D080266B429946360434434B46382B00DDD6E01F2B00DD35E1E1
:2017C0002026F51A2600AE40B2463E00DE40AC46350056462E436546AF407D1EAF41DC40D7
:2017E0003743D71BBA4292410C1B5242A41A0600D846A3E6644667462C4300D0A2E6002545
:020000040800F2
:201800000026002706E71E00C4E6C046FF070000FFFF7FFFFFFF0F801F2B63DC2020C31A0B
:20182000080098409C46834653461000D84003005846184363469A40531E9A4153460243B3
:20184000D94003E726003E4306D0EB439946002BC7D0944EB042ACD10C0017000600D846A1
:2018600098E6904B9A450BD08246E7E6002800D09EE01800104300D1E9E01C001700D846F4
:20188000884E87E6002572E7002182E723003B43002E00D0ABE0002B00D1E7E00B001343AF
:2018A00000D177E6BA18BA42BF4164187F42E419230200D4F2E07C4B17001C40060069E698
:2018C00020003843002ED1D100285BD11C00144300D1A8E01C001700D8465BE606000024C1
:2018E000002797E650460B002038C34099465346202B00D195E0402350461B1A99400A43EB
:20190000511E8A414B4600211A439FE6002E30D126003E4367D0DB439A46002B1CD0614E28
:20192000B04260D05346382B00DD96E01F2B00DD9FE02026F31A26009E409C46B3465346C5
:201940003E00DE4033005E461E4363469F407B1E9F415346DC403743BF18974292416418C4
:201960005242A418060078E627437C1EA741002437E74C4EB04236D080265B4236049A4696
:201980003443CFE71800104300D103E6B81A84466745AD41E01A6D42401B050200D42CE6CE
:2019A000D71BBA4292411C1B5242A41AD846F1E51800104300D163E7F8086707074380200B
:2019C000E4080003044208D0DD08054205D1D208590711430F002C00D8467B0FE4001C4344
:2019E000FF00304ED6E50C0017000600D2E5002B38D00B00134300D142E7F8086707074389
:201A00008020E40800030442E7D0CB080342E4D1D208490711430F001C00DEE700270024B4
:201A2000D5E500216BE700250027F3E54E462500203EF5404B462E00202B2DD04025ED1A96
:201A4000AC4027437C1EA74100243743C9E6802400252403134E0027DCE527437C1EA7413C
:201A6000002479E70C0017000E4E93E50C00170090E556462300203EF34099465346202B40
:201A80000ED0402356469B1B9C4027437C1EA7414B4600241F435FE70024D2E71700B2E503
:201AA0000024F2E7FF070000FFFF7FFFF0B557464546DE464E46E0B54C000E0387B0834630
:201AC00092461D008046360B640DCF0F002C4FD06F4B9C4235D08023420F1B04F600134374
:201AE00033439946C30098466A4B00269C460023644403932B031B0B9B466B00ED0F5046A0
:201B00005B0D01955ED0624A934253D05A46D1008022400F120402430A4393465246D100A9
:201B20005C4A9446002263443800684084460290E41A16430F2E00D9B4E0574BB6009B59D3
:201B40009F460300334399466CD100239846023308260393CEE7CB464146039A0197022A63
:201B600065D1019B4A4C9C460023002298466BE00300334399464ED0002E00D1BCE130006B
:201B800001F0E4F903000B3B1C2B00DDACE11D22D31A5A460100DA4008398E4013003343FE
:201BA00099465B468B40984600233C4C0026241A03939FE751465A46114329D10022934651
:201BC0000232B1E7594601431ED05B46002B00D19EE1584601F0BAF903000B3B1C2B00DD9D
:201BE0008FE102005946083A91408B461D21CB1A5146D9400B0059460B4351469B469140DC
:020000040800F2
:201C0000264B00221B1A8FE7002301229B468BE75146032288E7002398460133042600243F
:201C2000039367E70323B14603930C2662E7032A00D15CE2019B012A00D0E4E113409C46C5
:201C4000002300240022984600211203130B0A0D12051A432305124C4046224013436246F2
:201C60005B00D2075B081343190007B03CBC90469946A246AB46F0BD002380229C461203B8
:201C80009846034CE0E70023014C00229846DBE7FF07000001FCFFFFBC9100080DFCFFFFC1
:201CA000FFFF0F80D94500D939E100D134E1002346464D469A46013C5B460A0E1B021A430E
:201CC0000B02170C039313041B0C3900280090460193FEF723FA0200019B83465A432800F7
:201CE00039009146FEF7A0FA350C09040D43A9450DD95B464544013BA84500D93AE1A9459E
:201D000000D837E102235B429C464544E3444B46EB1A390018000493FEF700FA019B050071
:201D20004343390004989946FEF77EFA330409041B0C0B43994509D943446A1E984500D9BE
:201D40001AE1994500D817E1023D43444A469B1A5A4612042A4303999346100C0A0C91462E
:201D600009045A46090C4E460D001204120C4543059151437243704352190E0CB21895428C
:201D800003D980256D02AC466044150C09041204090C28185218834200D2CEE000D1C8E0FC
:201DA0001D1A53469E1AB24592415242AB1A9A46984500D117E139001800FEF7AFF9019B68
:201DC00005004343390050460493FEF72DFA04980B04310C1943884209D941446B1E88452B
:201DE00000D907E1884200D804E1023D4144049BCB1A180039000493FEF790F9019B824689
:201E00004343390004980193FEF70EFA01980B043104090C194388420DD953464144013B7E
:201E2000884500D9E8E0884200D8E5E002235B429C464144E244019B2D04CE1A51462943C6
:201E4000059D4F462A000B04080C1B0C5A4345437B4378435B19170CFB189D4203D980252F
:201E60006D02AC4660441D0C12041B04120C28189B18864200D293E000D18EE00123194322
:201E8000A04BE318002B00DC99E04A0700D09EE05A46D20106D55A469B4B1A408023934693
:201EA000DB00E318994A934268DD0123029A984C1A400023944698460022C5E680224B4676
:201EC000120313420AD05B46134206D11A431203120BAC4688468E4CB6E64B461A43120329
:201EE000120BBC468A4CAFE603005A46283B9A4000239146984657E6584601F027F8203065
:201F000040E603005246283B9A400021934677E601F01CF820305FE6884500D2C7E64B46F5
:201F2000DE075D0843465B081E434346DB079A46C2E60025924500D333E7039E5946B446F4
:201F4000E244B245AD416D424544EB180139984507D2984200D97FE000D1BCE01D1A8B46C4
:201F60001FE79845FAD1039D5545F2D943468B461D1A16E79B46CAE61500E7E65A46C9083C
:201F800052070A435B0590465C0D5A460123029952021940120B8C4656E6002B00D16FE773
:201FA00046444A1EB04529D91100864200D065E7039A934200D061E762E7012149420120A2
:201FC000C21A382A21DD029B03409C4638E60F220A40042A00D15BE70A00111D914292414B
:201FE0005242934454E7474BE318002BE5DD01225242F2E71D00FAE69A461CE7B04239D84E
:020000040800F2
:202000006ED011003AE702933AE71F2A3CDC20239B1A0C005846994098404B1E99415B4602
:20202000D440D340204308431A00430709D00F230340042B05D00100081D88429B415B42AC
:20204000D21813023AD50123029A01241A400023944698460022F7E5022149428C46039D3A
:20206000E344AC46E244AA45AD416D424544ED182D1A96E68A1E03994D008D42894149428F
:202080004144761803958FE71F204042C31A5846D8400300202A28D040205D46821A954012
:2020A00029434A1E91411943072300220B4009D00F2300220B400800042BBDD101005307EF
:2020C0005202120BC9081943012388460299002419408C46B8E55245BED88B46002560E680
:2020E000039D9D42C6D3110062E70025D8E780225B4612031A43019B1203120B9C46884657
:20210000034CA1E5FF030000FFFFFFFEFE070000FF070000F0B557464546DE464E46E0B5C8
:202120000C0398464E00230B87B0070092469B46760DCD0F002E6BD06D4B9E4235D0802436
:202140005B46420F2404DB0014431C43C3009946684BA3469C4600230027664402934346A2
:202160001C035A00DB0F5046240B520D984600D176E05F4B9A426DD08023410F1B040B43B0
:202180005C49E4008C461C43C300002062444146B6186940721C0191944607430F2F00D9A3
:2021A000B0E0554ABF00D25997465B460343994600D087E000239B46023308270293CEE77A
:2021C00042460192022867D0032800D10EE2012800D062E100230024002299460199014038
:2021E000CDB2002112030B0D120B1B051343434A240513401C436400ED0764082C43484656
:20220000210007B03CBC90469946A246AB46F0BD034399464FD05B46002B00D189E15846CA
:2022200000F094FE03000B3B1C2B00DD7AE11D22D31A3A0001005C46DA4008398C40130011
:202240008F4023439B46B94600232D4E0027361A029384E7534623432AD10024022096E797
:202260005346234320D0002C00D157E1200000F06DFE03000B3B1C2B00DD49E11D21CB1A05
:2022800051460200D9405346083A944093400C431B4A121A00207AE70125019B144C1D402A
:2022A0000023002299469CE70024002201206EE7534603206BE700239B4601330427002624
:2022C00002934CE7032381460C27029347E780220023002512039946054C82E75C464B4688
:2022E00002986FE75C464B46019502986AE7C046FF07000001FCFFFFFC910008FFFF0F8011
:202300000DFCFFFF4A464946170C1A0C1B041B0C08041900000C41431500884619007D4397
:202320007943039589462900150045434D44029545462D0CAA46029D5544A94506D98A4603
:20234000802149028946CA4451460391290C0491414609042D04090C88462900250C240495
:202360004144240C0591210041438846210079438A466843414650448146080C48446F4313
:20238000824503D98021490289464F44010C894639004944029141460F0404993F0C8846C7
:2023A0000004C01980444146049159460F0C0904090C884659438A46390051438946414627
:2023C0004A435146090C8B467B43D2185A44934203D980235B029B46D94451460904090C45
:2023E0008A46414661437C43130C12044B445244A1468A463C0041466C434D4351464D44E8
:020000040800F2
:202400000F0C7D19A94503D98021490288464444049F0399B84641448B4683458041414260
:202420008846514608042F04000C3F185846029910188946904292414F44BA4652429946BA
:202440009346C244D144CB448F42BF41C245894199459B41934592417F4249422D0C524259
:202460000F435B4213437F19FF185B463C19DB0D059A64021C43430213435D1EAB415A4684
:20248000C00D034352021343E20156D501205A0803401343E207134364085A48604400283C
:2024A0004DDD5A0709D00F221A40042A05D01A1D9A429B415B42E4181300E20104D5802033
:2024C000514AC00014406044504A904200DDE3E60125DB0862071A436402019B9146220BC2
:2024E0004405640D1D407CE6802259461203114208D0144206D122431203120B45469946B4
:20250000434C6EE65B461A431203120B404C68E603005446283B9C400023B9E600F016FD2D
:202520002030A6E60300283B9F400023BB4699468AE600F00BFD203074E6B446ADE70125B1
:202540002A1A382A06DD019B00241D4000230022994646E61F2A21DC20252000AD1A1E00F5
:20256000AB40A840D6405D1EAB4130431843D440430709D00F230340042B05D00300181D55
:2025800098429B415B42E418230221D50125019B01241D4000230022994622E61F252100FC
:2025A0006D42281AC1400800202A1DD05F35AA1A944023435C1EA341072503431D40002209
:2025C000002D09D00F2200241A401800042AD6D1030065076402220BDB082B430125994601
:2025E000019B00241D40FCE50024E2E7802201251203224301991203120B0D409946044C66
:20260000EFE5C046FF030000FFFFFFFEFE070000FF070000F0B54646D6464F460C03C0B572
:20262000CD0F4E00610A440F0C43C1005800400D84468A460F001903500F490A0143C64834
:20264000760DA846DB0FD200844500D1D8E001204340AB4200D1A6E06046351A002D00DC15
:2026600005E1002810D10B00134300D1D7E06B1E002B00D04BE153469F1ABA458041641A42
:202680004042241A01261EE0B34B9E4248D080231B041943382D00DD19E11F2D00DD4CE1AF
:2026A00020230F005B1B10009A409F40E840531E9A41E940074317435346DF1B611ABA453B
:2026C000A44164420C1B230200D4C5E06402650A002D00D1F6E0280000F038FC0300083B6F
:2026E0001F2B00DDE9E020223C00D21A9D40D4409F4025439E4200DDDBE09E1B731C1F2B3E
:2027000000DD0AE120223800D21A290097402C009140D8407A1E9741DC40002601430F432E
:202720007B0709D00F233B40042B05D03B1DBB42BF417F42E4191F00230225D5864B013634
:202740009E4200D1AFE0854B01251C4043466207FF08640276051743240B760D1D40002183
:202760002403230B0C0D7E4A24051C431440330523435B00ED075B082B43380019001CBC60
:2027800090469946A246F0BD012543466207FF081743E4081D40704B9E4236D024037605EA
:2027A000240B760DDBE76346F31A002B00DC94E06046002835D068488642B1D080273F04BE
:2027C0003943382B00DCFDE00A43170000217A1E9741574457458041091944420C19230282
:2027E0003AD55D4B01369E4200D14BE101225B4B1C407B0817401F43E207174364088FE788
:020000040800F2
:202800000800104300D024E721E723003B4300D1B9E18022120314432403240B9FE72E0056
:202820007EE70800104300D1CAE0581E8446002800D0E7E052445245804164184042241836
:2028400017000126230207D50226CFE764462C4300D1B3E12C0067467B0700D062E76307FF
:20286000FF081F4301254346E4081D4093E7002D78D1751C6D056D0D012D00DCF2E0504618
:20288000801A8245BF41651A7F42ED1B8446280200D48CE05046171ABA4292410C1B554207
:2028A000651B984614E70125434600241D40002755E72A4CF61A2C4032E73D0028388540BF
:2028C000002717E7380000F041FB203006E70A43170000217A1E9741EEE6002B00D0E5E0A9
:2028E000731C9C465B055B0D012B00DC9FE01A4B9C4500D1C5E05244524580416418404270
:202900002418E707520817436408664608E71248854200D185E01D00BCE629001F3EF14005
:20292000202B00D17FE04022D31A9D402F437D1EAF4100240F4300268EE72B000F00203B4D
:20294000DF40202D71D040235D1BA9400A43511E8A4100211743AFE6FF070000FFFF7FFFED
:20296000FFFF0F80002E3ED0B34EB44545D0802636046D423443382D00DDA8E01F2D00DD86
:202980001FE1202627005046761BB740E84007435046B040461EB041EC403843171ABA428B
:2029A00092410C1B5242A41A664698468BE6644667462C4300D08BE6002500260027EAE687
:2029C0001E00ADE61F2B60DC2027F81A0F00844687401000D840074360468240501E8241BC
:2029E000D9401743F5E626005046064305D0ED43002DD3D0904EB445BDD10C00170066467B
:202A000098468DE68C4883420BD06346D9E6002D00D096E00800104300D1E2E00C00170005
:202A20009846854E7CE6002580E700218EE7230050460343002E00D0A8E0002B00D1DEE022
:202A40000B00134300D16BE65244524580416418404224181700230200D4FDE6774B66466A
:202A60001C405DE6250050460543002ECFD1002D4FD10C00144300D1A0E00C0017009846E4
:202A80004EE666460024002785E61F000800203FF8400700202B00D18EE04020C31A99403B
:202AA0000A43511E8A410021174392E6002E14D126005046064362D0DB43002B5CD187183D
:202AC0009742924164185242A418664687E650462043441EA041002460E7574EB4454ED002
:202AE000802636045B423443382B00DD7FE01F2B00DD8BE0202627005046F61AB740D8408F
:202B000007435046B040461EB0410743DC40BF18D6E70D00154300D102E65046801A824581
:202B2000BF41651A7F42ED1B8446280200D48DE65046171ABA4292410C1B5242A41A984625
:202B4000EEE50D00154300D16BE750466707C00807438020E4080003044207D0CD0805423C
:202B600004D12C009846D70849070F437B0FE4001C43FF00304ED3E52F4EB445B4D10C00EC
:202B800017006646CCE500270024E8E5002B39D00B00134300D144E7C008670707438020F8
:202BA000E40800030442E1D0CB080342DED1D70849070F431C00D9E7002171E70025002746
:202BC000E9E52E002700203EF740202D2FD04026751BAC4050462043441EA0410024384334
:202BE000DCE6802400252403134E0027D3E5504620430700781E87410024BF1860E70C0037
:020000040800F2
:202C000017008DE50C0017000B4E89E51E002700203EF740202B0CD04026F31A9C4050465B
:202C20002043441EA04107430024BF1848E70024D0E70024F3E7C046FF070000FFFF7FFF19
:202C400030B5134D0A034B00120B5B0DC90F0024AB4210DD0F4CA3420FDC80240E4D6403EB
:202C60002243ED1A1F2D0BDD0C48C31ADA405442002900D11400200030BD094BCC18FAE79F
:202C8000084CE840A44663449A400243EFE7C046FE0300001D0400003304000013040000BC
:202CA000FFFFFF7FEDFBFFFF10B5041E28D000F04DF9154B154A1B1AD21A1F2A15DD144A24
:202CC000D21A9440002224035B05240B5B0D0021100024030A0D240B120522430D4C1B0561
:202CE000224013435B00590810BD210091400A000B21081AC4405B052403240B5B0DE6E75A
:202D0000002300240022E2E71E0400003304000013040000FFFF0F804100090E4B1C70B5A0
:202D2000DBB24602750AC40F012B14DDE0239B006D07360BCB1800210A0D280012051C4D39
:202D400032435B052A405B0813435B00E4075B082343190070BD002914D1002D1ED02800D5
:202D600000F0F4F80A281CDC0B232A001B1ADA40030015339D400F4B12031B1A5B05160B59
:202D80005B0DD8E7002D06D0320B802636036D071643094BCFE7084B0026CCE700230026A1
:202DA000C9E703002A000B3B9A400025E3E7C046FFFF0F8089030000FF070000F0B54C0011
:202DC000640D0B03621C450F5B0A52052B43C90FC500520D012A28DD3A4AA618FE2E1BDCE7
:202DE000002E3EDD80010200501E82416D0F2A43DB0013435A0704D00F221A40042A00D0FE
:202E000004338022D2041A405AD00136FF2E03D09B015B0AF4B201E0FF2400235802E40537
:202E2000400AC90720430843F0BD002C07D01D43F2D08020DB0080040343FF26DAE72B435F
:202E400003D00523DB08FF2C03D05B025B0AE4B2E4E7002B32D08020C00303435B025B0ADB
:202E6000DCE73200173214DB80221E2712041343BF1B1F2F0FDC144A944664442A00A540D0
:202E80002E00A340751EAE41FA40334313430026B0E70024D5E702225242961B1A00F24047
:202EA000202F09D0094884466444A3402B435D1EAB41002613439DE70023F7E70023ADE7B7
:202EC0003400BFE780FCFFFF82FCFFFFA2FCFFFF8446101C62468C46191C634600E0C04652
:202EE0001FB500F0FBF8002801D40021C8421FBD10B500F055F84042013010BD10B500F0E0
:202F0000EDF8002801DB002010BD012010BDC04610B500F0E3F8002801DD002010BD012043
:202F200010BDC04610B500F075F8002801DC002010BD012010BDC04610B500F06BF8002876
:202F400001DA002010BD012010BDC0461C2101231B04984201D3000C10391B0A984201D35F
:202F6000000A08391B09984201D30009043902A2105C40187047C0460403020201010101BA
:202F8000000000000000000010B5002903D1FFF7DDFF203002E0081CFFF7D8FF10BDC046A7
:202FA000F0B54F464646D6465C00C0B51F03DB0F9A46174B0E034D0084468046360B6D0D67
:202FC000C90F91463F0B640D01209D4208D09C4201D0A5420BD01CBC90469946A246F0BD1C
:202FE00063463343F7D1AC42F5D13A43F3D10120BE42F0D1C845EED1514507D0002DEAD1F2
:020000040800F2
:2030000063461E433000461EB041E4E70020E2E7FF070000F0B54546DE4657464E46E0B54D
:203020001F033D0B2C4F0E034C00AB465D008446360B640DC90F90466D0DDB0FBC422AD07A
:20304000254FBD422DD0002C0FD130430700814678427841C0B2002D17D15F463A4314D1B2
:203060004B460020002B0AD006E0002D02D15846024301D0994218D04842012108433CBC4E
:2030800090469946A246AB46F0BD0028F2D00120013B1843F3E737000743D1D002204042B3
:2030A000EDE75F461743CED0F8E7AC42E4DC03DA481E01210843E2E75E45DDD806D000204B
:2030C0005E45DCD20123481E1843D8E7C445D3D80020C445F6D3D2E7FF070000F0B54E465D
:2030E0004546DE4657465C00E0B51F03DB0F99462A4B0E034D00C90F8446360B6D0D8B46A7
:2031000090463F0B640D9D4220D0244B9C4222D0002D12D1304343424341DBB2002C1FD0DC
:20312000002B0CD04B460120013B034318003CBC90469946A246AB46F0BD002C16D0CB45E7
:2031400017D05B46594201230B43EFE7310002230143EBD1D9E7390002231143E6D1D7E7C7
:203160003A43DDD100230028E0D0EAE73A43E6D1E7E7A542E5DC05DBBE42E2D807D000231A
:20318000BE42D3D25946012301390B43CEE7C445D7D80023C445F5D3C8E7C046FF07000023
:2031A0000D4885460D480E490E4A002302E0D458C4500433C4188C42F9D30B4A0B4C00232A
:2031C00001E013600432A242FBD300F075FC04F017FF00F0BDFAFEE700200020000000205C
:2031E000DC000020D4AC0008DC000020D80A0020FEE70000014B18887047C046BAF7FF1FF0
:2032000010B586B0040000F082FA80200121800004F0A4FB1D4803F0E5FF684604F00AF88E
:2032200000236A46137180226946D20017480292009303930493059303F0E6FF134804F0A2
:2032400020F80121114803F0FDFF02210F4804F040F801210D4804F032F8012003F0FAFFA4
:2032600007220221002C00D00121084804F004F8802107228902054803F0FEFF01210348A5
:2032800004F030F80028F9D006B010BD0024014010B5034804F00EF800F096F810BDC046DE
:2032A0000024014010B5034803F0FFFF00F09AF810BDC04600240140037870B504000D003D
:2032C000002B07D115491648012504F08BFF6D42280070BD01F0AEFA200001F0D9FA114BAE
:2032E00001211A00F03211706268F4331A602A6000250D4E626831000C4804F073FF237E24
:20330000AB42E5D0631CDB7FAB42E1D0636AE2693100074804F066FFDAE7C0463C92000806
:203320005B920008580900204C920008719200088792000830B50D0001218DB004000800A8
:2033400004F000FB8022D2000892802200230692603A0992144A03930B930192059380227F
:2033600080230294114C5B01520001A920000A930792049503F0C4FF022004F009F8012280
:203380002000022103F0EAFF0121200003F0D6FF6A46092368461370083B5370937004F0FA
:2033A00097F90DB030BDC046402401400800024010B5022003F0DCFF002804D0022003F018
:2033C000E7FF00F021FB10BD10B5054C0221200003F0C2FF0121200003F0B0FF10BDC0466A
:2033E0000800024010B50021014803F0A7FF10BD08000240F7B52022C026304DF6022B1D13
:020000040800F2
:20340000DA679218DA673000012104F09BFA082200216846012404F034FE6B46284F69468A
:2034200038005C71009404F099F82100300004F089FA08220021684604F023FE08230093DA
:203440006B46694638005C7104F088F8684603F0DDFF09230822002600936B4668461E7119
:203460005A719C7103F0A0FF3100200004F03AFB0321200004F036FBC027200003F0CEFF38
:2034800020237F00EB51082003F0C8FF40236A46EB5168463B3B56701370947004F018F987
:2034A0006A460623684613705670947004F010F920232B60DB182B60F7BDC04600E100E074
:2034C0000004004873B5C0200121C00204F03AFA802390251B020124002600936B46ED0596
:2034E000280069469E711C715C7104F037F880235B0000936B46280069469E711C715C71E7
:2035000004F02CF873BD00000121F0B5080087B004F024FAC0200121C00204F013FA8027DF
:20352000902000250126022302A904AC3F01C0050D714E71CB71029704F010F8200003F0E9
:2035400065FF10232000637104972571A67103F02BFF072301A80370043B4370867004F059
:20356000B7F88022034B0B211A60280004F0BAFA07B0F0BD00E100E007B5684603F046FF6F
:2035800080231B0100936A46002369461371102268464A718B7103F007FF07BD802010B51A
:2035A000000103F041FF00280ED08020000103F045FF802190200901C00504F017F8431E75
:2035C0009841C0B200F09CF910BD10B5012003F02BFF012803D103F031FF03F029FB10BD47
:2035E00010B5082003F020FF012804D1073003F025FF03F005FB10BD10B50221014803F09C
:20360000FBFF10BD0004004807B508220021684604F037FD684603F0DDFF02236A460093D5
:20362000013B53711371002369460248937103F095FF07BD0004004807B50822002168469A
:2036400004F01FFD684603F0C5FF02236A4600930023694602481371D37103F07FFF07BD74
:203660000004004810B5034803F076FCFFF7C2FE10BDC04600300140902010B51021C00524
:2036800003F0BAFF10BD902010B51021C00503F0B5FF10BD07B5C0200121C00204F052F913
:2036A000684603F097FF10236A46009390200F3B5371137100236946C005937103F04EFF40
:2036C00007BD10B5FFF7D8FFFFF7E4FF10BD8021902010B50902C00503F090FF10BD802118
:2036E000902010B50902C00503F086FF10BD8021902010B54900C00503F07EFF10BD80213E
:20370000902010B54900C00503F078FF10BDF7B5C0200121C00204F015F90223902601257C
:203720000024032700936B46F605300069461F715D719C71DC7103F011FF6B4630006946D2
:2037400000951F715D719C71DC7103F007FFF7BDF8B503F03DFD03F00BF803F005FDE121A8
:203760003648490200F04CFAFFF7ACFE00F032FEFFF778FF00F0B2FD01F03AF800F0EAFC85
:2037800001F032F800F0F0FC2D4B012218682D499623806804F0D0FD00F05EFE01F02CF8DE
:2037A00002F0D6FF00F094F801F0CAF901F0C2F900F0A0FD01270600A223234D5B00EF54D8
:2037C0002C0000F091F8A623FC345B00EF54E06400F090F8606500F08DFD1C4D2B68C01ADC
:2037E0001B4B98420DD900F085FD2860194DE26C2900194804F0F6FC626D2900174804F03A
:020000040800F2
:20380000F1FC01F06DFA01F0A7FA01F0BFFA00F071FDFA23801B5B01984204D900F06AFDA7
:20382000060003F0ABFC0E4B0233DB7F002BC3D00C4BD87800F024F9BEE7C046003801406A
:2038400074000020FC00002058090020F8000020B80B0000A5920008B2920008C89200086F
:203860000C0000200B04002010B5084B9868998989B2FCF753FC0400FFF7BCFC044BA1B2E2
:203880005843FCF7D5FC80B210BDC04694010020E40C000010B50400FFF7B2FC02210A483D
:2038A000FFF748FD00F048F9002C02D1FFF72CFE10BDFFF761FE10220021044804F0E1FBEC
:2038C000FFF7E6FCF4E7C046AE0100209401002010B50120FFF7DEFF0122024B1A7000F008
:2038E00059F910BD04000020014B18687047C046A8010020014B18687047C046A4010020E5
:20390000F8B5002807D0102200211C4804F0B9FBFFF7BEFCF8BDFFF7C5FC194B1F78002F56
:20392000F8D1FFF7A1FF154B0400186899897A2689B2FCF7F3FBFDF763FD05F0D3FA05F05B
:20394000ADFAFCF7F1FD0F496043FCF7E7FB0E4C464321880D4D642906D12868FCF7DEFB69
:203960000B4B2F601860278028682388F530FF308019013328602380CCE7C046940100204E
:2039800004000020FF0F0000AC010020B4010020A801002070B5FFF785FC164C2378012BC5
:2039A0001FD1FFF761FF144D06002868A98989B2FCF7B4FBFDF724FD05F094FA05F06EFAC6
:2039C000FCF7B2FD0D497043FCF7A8FB142358430B4B18606868A98989B2FCF79FFB094BE8
:2039E0001860207843425841C0B22070FFF752FF70BDC0460400002094010020FF0F000036
:203A0000A401002000000020D3B5194CA38901339BB2A381174B5A88A1685218A2601A88A8
:203A2000616852186260144A18881278012A05D1124B1B68C01AC317C018584080B2FFF7DC
:203A400033F9060020680F00FFF72EF93200009001913B0030003900FEF75CFB02000B002F
:203A600000980199FDF712FDFCF776FD2060D3BD94010020AE0100200400002000000020D3
:203A800070B5051E0B4C0AD0FFF731FEFFF71FFE220001232E322F341370237070BDFFF733
:203AA0002EFEFFF71CFE230001222E332F341A702570F3E7580900200121114B11481A68ED
:203AC0000A431A605A6802405A601A680E4802401A601A680D4802401A605A680C480240E2
:203AE0000F205A60DA6A8243DA621A6B094802401A635A6B8A435A6300229A607047C046DB
:203B0000001002400CB8FFF8FFFFF6FEFFFFFBFFFFFFC0FFACFEFFFF8020012110B5C005FD
:203B200004F043F80100012805D18020C00504F047F8FFF72FFF10BD802030B5012185B0F1
:203B4000000103F00BFF104B10491868FCF7E6FA01AC013885B2200004F014F864236360D9
:203B6000002325800A4D210028002381638003F0CDFF2800202104F034F80121280004F0D0
:203B80000AF805B030BDC0460800002040420F00002C0140012130B5080085B003F0EAFE36
:203BA000FA21164B89001868FCF7B8FA01AC013885B2200003F0E6FFFA23258080259B00C4
:203BC00063600023ED05210028002381638003F09DFF01222800110003F0FFFF6A460F237F
:203BE0000124137068460C3B5370947003F070FD2100280003F0CFFF05B030BD080000202D
:020000040800F2
:203C0000F0B50500802087B00F008002012103F099FE214B9D422FD180200121C00103F025
:203C20009DFE902001220921C00503F0E9FC80239B0090206A4600240093012602236946FF
:203C4000C00513715671D471947103F087FC08236946280004930097029401940394059409
:203C600003F0C8FF4021280004F034F83100280004F01CF807B0F0BD084B9D42FAD180207F
:203C80000121800203F076FE902001220221C00503F0B6FC0423CCE70038014000440040E2
:203CA00010B5034804F02CFB642000F029FBF8E7DE920008F0B50C000300020020340D785B
:203CC00015704D7855708D789570CD780431D5700432A142F3D10826203007271A7F5D7F0E
:203CE0009C7FD97F37401CD1124F7D5DAC463D5D7C5CB95C104FF208BA5C67467A401F78CC
:203D000001367A4002705A78554045709A7854408470DA7804335140C17004303C2EDCD1F4
:203D2000F0BD042FEBD1034FBA5C7D5D3C5D795CE5E7C046F2930008E792000830B50C0066
:203D40000001121810340023C85CD55C6840C8540133042BF8D1043104328C42F3D130BDA2
:203D60001B23C209534340005840C0B270470000F0B58BB007910A00040001000020FFF706
:203D8000DDFF012302930194211D27004B4A08E01D78555D1D7004338342F9D101378F4274
:203DA00003D038003B001030F2E7627963786270627A25006271627B63736272A27AA3788A
:203DC000A270A27BA372A379A271E27BA373E378E270E27AE273E279E37123001033E27236
:203DE00009932B786E7818000493AB7870400593EB780693069A059B534008934340039301
:203E0000FFF7AEFF049B5840039B5840287005987040FFF7A5FF039B46405E406E700898D3
:203E2000FFF79EFF059B5840039B5840A870069B04985840FFF794FF069B5840039B58409C
:203E4000099BE87004359D42CBD1079A21000298FFF774FF029B0133DBB202930E2B92D15E
:203E60001649019A019B10321878085C187004339A42F9D1019B01330193BB42F1D1627913
:203E800063786270627A21006271627B63736272A27AA378A270A27BA372A379A271E27B17
:203EA000A373E378E270E27A0E20E273E279E371E272079AFFF742FF0BB0F0BDF293000890
:203EC000F0B593B009910A00040001000E20FFF735FF0D230593627A637B6273627974480B
:203EE0006272627863706271A27AA378A270A27BA372A379A271E279A373E378E270E27A4A
:203F00000194E271E27B211DE272E3730094009A009B10321D78455D1D7004339A42F9D1C8
:203F2000009B013300939942F1D1099A21000598FFF704FF23002700103311933B78BD780F
:203F400002937B7802980393FB780493FFF708FF0A90FFF705FF0B90FFF702FF069003984B
:203F6000FFF7FEFE0C90FFF7FBFE0D90FFF7F8FE07902800FFF7F4FE0E90FFF7F1FE06000B
:203F8000FFF7EEFE08900498FFF7EAFE0F90FFF7E7FE1090FFF7E4FE0B9A0A9B5340069ABE
:203FA00053400C9A5340079A5340089A73405340039A43405340049A6B4053403B70069A3F
:203FC0000C9B53400D9A5340079A53400E9A5340089A5340109A5340029A43405340049A3C
:203FE0006B4053407B70069A0B9B5340079A53400E9A53405E40089B069A5E400F9B5E4089
:020000040800F2
:20400000029B46405E40039B5E40049B5E400A9BBE7053400D9A5340079A5340089A53405D
:204020000F9A5340109A53405840029B5840039B58406840119BF8700437BB4200D07DE7DC
:20404000059B013BDBB20593002B00D043E7627A637B62736279164962726278637062711D
:20406000A27AA378A270A27BA372A379A271E279A373E378E270E27AE271E27BE373E272C2
:20408000019A019B10321878085C187004339A42F9D1019B01330193019A009B9342EFD11F
:2040A000099A21000020FFF749FE13B0F0BDC046F292000870B504001500FFF7FBFD200091
:2040C00029001022F03003F0D3FF70BDF7B505000E00F0350700290034000192019AA31B3F
:2040E0009A4204D82800102203F0C2FFF7BD0023E25CC85C4240E2540133102BF8D1390098
:204100002000FFF735FE21001034E7E7F0B506000D0017000C0085B0631B9F4201D805B026
:20412000F0BD10222100684603F0A2FF20003100FFF7C6FE30000022F030A35C815C4B4059
:20414000A3540132102AF8D1694603F091FF1034E2E7000010B501002022024803F088FF27
:2041600010BDC046E802002010B501002022024803F07EFF10BDC046C802002070B50500B9
:204180000E00064C064A20000649FFF793FF320029002000FFF79AFF70BDC046B801002062
:2041A000B8020020E802002070B505000E00064C064A20000649FFF77DFF320029002000E5
:2041C000FFF7A4FF70BDC046B8010020B8020020C8020020F8B506000D0000240727AC4276
:2041E00000D1F8BD315D084803F0FCFF0F2301341C4203D1054804F083F8F0E73C42EED104
:20420000202004F009F8EAE706950008C0AB0008013870B50C001500012807D903F05CFDAE
:20422000012509236D420360280070BD80210D4803F04AFD0028F9D06619A64206D1402105
:20424000084803F041FD0028F9D0EDE72178054803F036FD8021034803F036FD0028F9D009
:204260000134EAE700380140F8B50C0000258E18B44216D000220C4B1A701A78002AFCD0D4
:2042800001220A4B21001B782700237010000134FFF7BEFF631E1B7801350D2BE8D1033BC7
:2042A0003B702800F8BDC0465409002055090020C021074A074B08485360036A09061B0255
:2042C0001B0A0B4303620023936007331360704710E000E07FBB000000ED00E010B5FFF7FA
:2042E000E7FF10BD024A1368013313607047C04608030020014B18687047C0460803002001
:20430000431C10B55C1EA341034AC018116813685B1A8342FBD310BD080300200023094A8C
:2043200010B582425B41C0183023074C5843A168A2688B1A914201D2044A9B189842F7D837
:2043400010BDC046E703000010E000E080BB000070B50D00040003F08FF82900200003F0A9
:20436000E3F803F099F870BD10B5040003F084F8200003F0BDF803F08FF810BDF8B50500B8
:2043800000AF5408D30701D5541C64086400230068460833DB08DB00C31A9D46684603F0F7
:2043A00067FE28006E46FFF7DFFF2C19A54201D1BD46F8BD31882800FFF7CAFF0235023623
:2043C000F4E7002310B59A4200D110BDCC5CC4540133F8E7802070B5012188B0800303F0B8
:2043E000C9FA80200121C00203F0ACFAC0230125164E01AC0193BE3B237121005B193000DD
:020000040800F2
:204400006371A571E57103F0A9F82A003000062103F0F6F830000E4E2A00072103F0F0F8AD
:20442000300003F0FFF80B4B21000193002330006360A360E36023616361A36103F00CF9B7
:204440002900300003F03AF908B070BD00040048005400400903335010B5104803F050FF2A
:204460000F4C104A2100104803F0BCFE00F0B6F9210002000D4803F0B5FE21000C4A0D48D8
:2044800003F0B0FE21000C4A0C4803F0ABFE0C4B0C4A21000C4803F0A5FE10BDC0AB00081C
:2044A00010950008239500082F9500086C9500084B0000207B950008340000208F950008B7
:2044C000A3950008AC950008B895000810B5002805D0012802D10348FFF750FF10BD024899
:2044E000FAE7C04600F4000800F80008030010B50800002B05D0012B02D10349FFF761FF68
:2045000010BD0249FAE7C04600F4000800F8000830B50400204D8FB0FF220021280003F0AE
:20452000B0FD290020786268FFF7E0FF2900FF2204A800F00DFEE268A16804A801F024FA6F
:20454000051E10D12378154A9B009B58079A002A00D1134A00921349134A144803F042FEFC
:2045600028000FB030BDE268A16808A800F028FC0D9B1D780393002DF2D008A800F03CFCB6
:204580000028F5D12378054A9B009A580849094803F028FEE4E7C0460C0300200C97000850
:2045A000ED950008F9970008D0950008F4950008109800081596000870B50400144E86B0B7
:2045C000FF220021300003F05CFDFF22310001A801F012FBE268A16801A801F063FD051EB4
:2045E0000AD1059A002A00D10A4A0B490B4803F0F9FD280006B070BD207862683100FFF7CE
:2046000065FF2378064A9B009A5806490648EEE70C030020ED950008F9970008BF9700089D
:204620000C97000810980008DB97000830B515000C008FB002001A4902A800F0C1FB2A007B
:20464000210008A800F0BCFB0125099B02A859781A780902114300F027FC041E19D0079BEC
:2046600000931B78002B0ED00D9B1D700C9B0093039B00981A7AD979069B12020A43190065
:20468000019303F0F5FC08A800F0B6FB0028DCD103E00449044803F0A5FD20000FB030BD9F
:2046A0002A9F0008F9970008E596000810B588B00A00010002A800F083FB0124079B02A87D
:2046C0001C70019300F098FB0028F7D108B010BDF8B50400FFF71CFF061E30D123781F4DD4
:2046E0001F4F9B005A5939001E4803F07BFD237839009B005A591C4803F074FD2278002A46
:2047000006D0012A1DD01949194803F06BFD16E0E268184B43CB43C243CB43C243CB43C2B1
:204720001B681360E168A068FFF7C0FF2000FFF743FF061E0BD02000FFF7EAFE06003000F2
:20474000F8BD04223100E06803F09BFCEAE7237806499B00EA580848D7E7C0460C97000824
:20476000109800081497000853970008F997000885970008AC900008A997000830B50400B3
:2047800015008FB00A00010002A800F019FB21002A0008A800F014FB00240D9B00931B7820
:2047A000002B0DD0069B01340093039B00981A7AD9790C9B12020A431900019303F058FC70
:2047C00002A800F019FB050008A800F015FB002D01D00028E1D120000FB030BD014B186806
:2047E0007047C04600FC00080048704704FC00080048704724FC000810B50948FFF768FF57
:020000040800F2
:20480000041E05D10749084803F0ECFC200010BD0648FFF75DFF041EF8D102490448F3E73C
:2048200028980008F997000839960008389800086396000830B505008BB02822002168462A
:2048400003F01FFC0D4C6A4621002800FFF7EEFE6A460B492000FFF791FF002805D109491C
:20486000094803F0BFFC0BB030BD084C2000FFF7A3FE2000FFF72CFFF5E7C04605A20008B4
:204880000C000020109800089096000828980008002313B50C4C01AA21000193FFF7C6FEE9
:2048A00001AA0A492000FFF769FF002804D10849084803F097FC13BD074C2000FFF77CFEA5
:2048C0002000FFF705FFF6E77DA200080B04002010980008B996000838980008F0B591B0C6
:2048E0000622002102A803F0CCFB564F564E3A00310004A800F064FA544D02AA29000AA835
:2049000000F05EFA01240B9B04A859781A780902114300F0C9FA002818D0099B00931B7889
:20492000002B0DD00F9B0E9800931C70059B1A7AD979089B12020A431900009303F098FB44
:204940000AA800F059FA0028DDD103E04049414803F048FC02AA290004A800F031FA3E4A3C
:2049600029000AA800F02CFA0024099B00931B78002B14D00F9B1A78002A03D101320134A7
:204980001A70E4B20E9B00930B9B00981A7AD979089B12020A431900019303F069FB04A8E3
:2049A00000F02AFA00900AA800F026FA009B002B01D00028D9D1294B002C02D0284AD26909
:2049C0001A7019782448002938D0020029000AA800F0F6F901240F9B00931B78002B27D04C
:2049E0003A00310004A800F0EBF90B9B04A859781A780902114300F057FA002809D1144918
:204A0000144803F0EFFB154A1378013B137011B0F0BD099B1C70089B0093059B00981A7A14
:204A2000D9790E9B12020A431900019303F020FB0AA800F0E1F90028CDD1E4E7062203F037
:204A400020FBE4E758090020ABA20008E3A6000879980008939800080F0400201504002051
:204A60000C00002010B5002804D00021034802F023F910BD024B197B5868F8E74D3C2B1AB4
:204A80000C00002070B50500DCB030220021684603F0F7FA1F4C2A002100684601F0AEFC30
:204AA0006B461B79002B04D11B491C4803F09AFB0DE0029EFFF792FE86420BD0029CFFF717
:204AC0008DFE220003001649164803F08BFB012040421DE06B461B7F002B02D10E49124856
:204AE000E4E7A022002152000CA803F0CAFA2A0021000CA801F01AFC002802D106490B48A8
:204B0000D4E70B490CA80431FEF7D6FB0028DED15CB070BD20040020C7980008E698000896
:204B2000D7980008079900085D99000875990008200500200122014B1A7070472005002008
:204B40000122014B5A7070472005002010B501F015FF002810D0FF210A4801F015FFFFF7E1
:204B600091FF041E0BD10122074B084908481A7003F038FB200010BD01246442FAE7002424
:204B8000F8E7C0462004002020050020D7980008B69A0008F0B5434B8DB05B680500424C12
:204BA000002B06D022000121F03211702200F4321360FFF793FE30220021684603F061FA5C
:204BC00001276B461F701F71FFF708FE6B461F752300364EF4331A68029031003448069275
:204BE00003F000FB6B46210008A81F7701F026FC304803F085FB01A801F0FEFC200001F00C
:020000040800F2
:204C000013FD2D4803F07CFB002D05D1AE2229005200200003F035FA6A46FF21274801F0E5
:204C200061FC071E08D126492648012403F0DAFA644220000DB0F0BD02003100224803F090
:204C4000D1FA2800FFF70EFF39001C4801F0BCFE041E02D01A491D48E7E731001C4803F004
:204C6000C1FA39001548FFF7B5FA1A4803F048FBFFF740FB0700FFF73DFB174BC01B984229
:204C80000BD93100154803F0ADFAFFF75FFF002DCFD00020FFF7E6FECBE701F06FFE0028B6
:204CA000E9D0F2E72005002058090020D7980008AA990008DF990008E49900082004002091
:204CC000C7980008E9990008039A00082C9A0008459A0008629A0008E7030000659A000894
:204CE00037B5174B174C0233DB7F002B00D123706378002B09D12278002A06D1FFF726FF4F
:204D0000002801D101F0B2FE37BD22780E4D009229000E4A0E4803F065FA6078002809D07B
:204D2000002301206370FFF735FF2900094803F059FADDE72378002BF7D02070F3E7C046B1
:204D40000C00002020050020D7980008B8980008889A0008AD9A000810B5FFF7CBFA084CC6
:204D60002368C01A074B5A69FA239B005343984205D9FFF7BFFA0122034B20601A7010BDBC
:204D80001C0400200C0000202005002010B5FFF7B1FA084C2368C01A074B5A6AFA239B0075
:204DA0005343984205D9FFF7A5FA0122034B20605A7010BD180400200C00002020050020DB
:204DC000002310B5C2600160416083600B79CC781B022343D21802618B794C791B02234300
:204DE0001B041B14D218426148780B7800021843431E9841C0B210BDF8B5002441684B7882
:204E00000A781B021343A3420CD00A000F325378CD7B1B0242602B43A34205D1C268016803
:204E2000FFF7CEFF2000F8BD0D7ACB792D021D4330238E783340302B0CD194781C40302CB8
:204E400008D11779D4783F022743164CA44601246745E7D00F243700A743202F1BD14C7AC9
:204E6000897A090221434D43002B02D18368013383601379D1781B020B435D1903690124E9
:204E80005D190561937951791B020B431B041B14ED184561C6E73F218E43802EE4D1042592
:204EA000E2E7C046FFFF0000F8B504000E000F2745686268537811781B020B43B34203D131
:204EC00093783B40082B07D12000FFF795FF63689D42EED10020F8BD0120FCE710B54468E4
:204EE000A31843600023002904D1012010BDE05CC85401339342FAD1F7E70000836810B58B
:204F00000400002B06D1C368002B00D1094B0020E36010BD012203689847002805D1E3682A
:204F2000002B00D1044BE360F3E7A368013BA360EFE7C0464D9C00085B9C0008F0B587B017
:204F400004ABDE1D0391310004001500FFF7D6FF071E0BD1A368002B01D0002703E0002DBF
:204F6000FBD001232B70380007B0F0BD33785AB2002A04DB0193039B019A1A60F3E77F2289
:204F8000072513400193029231002000FFF7B6FF0028E2D01F2D12D9FF223E2D00D9FE3AC0
:204FA000337802990B4211D00199002901DA9A420CD0E368002B00D10A4BE360CDE7029AF8
:204FC00033781340AB40019A1A430192337807355AB2002AD8DB232DCDD170221342CAD01E
:204FE000E7E7C046259C0008F0B50F27466887B0B37804001F40082F1FD13F2503691C684B
:020000040800F2
:20500000002C01D107B0F0BD00232373236862689E6868463100FFF7D3FE636804932300EF
:205020000C330593B378AB43802B01D1231D04936846FFF7D9FFA468E2E73F22190091438D
:205040000A1E30D130211940102914D1436901698B4200D01A70F17A327B707BB57B072FB9
:205060000ED112020A43000410432D062843216900F021F8C6E79B06EDD563691A80C1E74A
:2050800012020A43000402432906337A1143F2791B0220691A43002902D002F0E9FFB1E75B
:2050A00002F0EFFFAEE78029ACD1002201690A609B06A7D5E1E77FB50A0001006846FFF797
:2050C0007FFE002806D06846FFF78EFF6846FFF793FEF6E707B000BD30B5040085B015006B
:2050E000002903D1174B02689A4211D1A3689D4217D9E368002B00D1134BE36000200EE059
:20510000102269462000FFF7E7FF002807D0103D102DF5D82A0069462000FFF7DDFF05B0DC
:2051200030BD2A00200023689847002805D1E368002B00D1054BE360F1E7A3685D1BA56096
:20514000EDE7C046DD4E00084D9C00085B9C0008034B4160036000238260C3607047C0461B
:20516000DD4E000810B50022FFF7E8FE10BD0000F7B50F0001A904001500FFF7F3FF061EE2
:2051800013D00199114B994206D9E368002B00D10F4BE360002608E03B7AFA791B0200291C
:2051A00005D11A43280002F06CFF3000FEBD1343994204D0E368002BEBD1064BE9E70A00EA
:2051C00020002900FFF788FF0600EEE7FFFF00004E9B00085D9B000873B50E0001A904005B
:2051E0001500FFF7BFFF002809D0019A511C8A4206D9E368002B00D1104B0020E36076BDFA
:205200003F20B3788343802B04D1E368002BF4D10B4BF2E7337AF0791B020343994204D923
:20522000E368002BE9D1074BE7E729002000FFF753FF0023019AAB54E1E7C0467F9B0008E0
:205240008E9B0008A09B000873B50E0001A904001500FFF787FF002811D0019A134B9A4287
:2052600004D9E368002B08D1114B06E0911C8A4206D9E368002B00D10E4B0020E36076BD32
:205280003F20B3788343802B04D1E368002BF4D1094BF2E7337AF0791B0203439942E0D8CA
:2052A0002A80A91C2000FFF717FFE8E7FFFF00004E9B00087F9B00088E9B0008F0B5002479
:2052C00006000D0087B00394019404ABDF1D39003000FFF713FE029000281ED07F203F783F
:2052E000019A38400021FBF78FF8039B7FB20B430393019B044307330193002F03DB039BF2
:205300002C606B6009E0019B462BDED1F368002B00D1034BF36000230293029807B0F0BDE3
:20532000259C000873B50E00694604001500FFF7C5FF002830D0337AF2791B021343082B06
:205340000ED1009B019A2B606A600099994202D1019B934220D0E368002B1BD10F4B19E086
:20536000042B03D1009B2B600022EEE7022B05D16B461B882B806B461B88F5E7012B05D1D9
:205380006B461B782B706B461B78EDE7E368002B00D1034B0020E36076BDC046DB9B000867
:2053A000C99B000873B50E00694604001500FFF785FF002809D0337AF2791B021343082B4A
:2053C00004D1009B019C2B606C6076BD009AD117042B01D12A60F8E7022B0BD113B22B80D1
:2053E000DD17934201D18D42EFD0E368002B0AD1064B08E0012B02D153B22B70F0E7E36839
:020000040800F2
:20540000002B00D1024BE3600020DEE7DB9B0008C99B000873B51C0000230D002370160014
:205420000B70136001A92200FFF788FD002805D0019B002B03D101221800227076BDDA08BD
:205440003260072213402B70F8E7000037B50400052921D80800FAF757FE030F151F1F1DDD
:2054600001AD012229002000FFF736FE002802D02B787F2BF4D83EBD082200212000FFF779
:205480002BFEF8E701A92000FFF76CFE0028F2D0019AF2E70422F0E7E368002B00D1024BEB
:2054A000E3600020E7E7C046649C0008F7B50D0001A90400FFF756FE00280FD02B002200A8
:2054C000C2CAC2C312681A60019BAA689A4206D2E368002B00D1044B0020E360FEBDAB60A6
:2054E000A268D31AA360F9E7359C00088A6870B505000C00002A05D1012063686B60E368CF
:20550000EB6070BD00212000FFF7E6FD0028F3D1F7E70000F0B5536816009A78040015008E
:205520003F208BB001928543402D00D19FE0802D00D197E0002D0FD1303810408700BC4676
:2055400062467E4FD25930270092019A3A40102A33D006D8002A29D0E368002B64D1784B01
:2055600062E0202A30D0302AF6D15A78197812020A4371690A80072815D11A7AD979120247
:205580000A433069290002F07CFD72683169137BD07A1B020343507B00040343907B0006BC
:2055A0001843FFF788FD3269716801E0326919002000009B9847050040E071693269914205
:2055C000F5D001200870F2E77769022939D1042837D806A92000FFF769FF051E10D10025EE
:2055E0002CE00A7AC879120202435A43336906A89A18009B9847002818D03B8801333B80AC
:20560000089B0193002B07D071683B888A7A487A120202439342E4D3089B0093002B07D0D2
:20562000E368002B00D1474BE360D8E70500F3E706A92000FFF75AFF0028D0D028000BB0E7
:20564000F0BD197ADA7909020A4339883569481C3880987A5E7A000230438142E0D24A4383
:20566000AA18A4E7E368002BDED1374BDCE73769002F02D03B68002B03D12000FFF7E6FE36
:2056800099E73B1D019302291BD106A92000FFF70DFF051ED2D0019A716806A83B6898474D
:2056A000051E05D1E368002B00D1284BE360C5E7089B0093002BEED106A92000FFF716FF4E
:2056C00079E7012929D0002906D005292FD0E368002BA9D11E4BA7E703AB5B184D1C009317
:2056E0000B2D00D17BE7012200992000FFF7F4FC002800D173E7009B29001B785BB2002B9B
:20570000EADB144B0895069303AB0793002309933B68019A716806A84CE7082203A920003A
:20572000FFF7DAFC0825002800D158E7E9E7042203A92000FFF7D0FC0425F4E7F49A00081A
:205740002B9B00081C9B00088E9B00083E9B0008649C0008DD4E0008F0B5002597B006ABAD
:2057600004000AA8089509955D80FFF729FB0195A368002B39D1002D09D006AAAB7A02325C
:20578000697A12881B020B439A4200D0C4E00B9B0AA801930C9D9E78FFF72EFB0028F6D118
:2057A00030231E4207D10B9A537811781B020B435A1E9341ED18402D00D9CEE0002D12D0A6
:2057C00000236A0908A9934200D0C8E01F22154009D09B0008A901325B58551B213AEA409F
:2057E000934200D0BFE001200EE006AB5E1C330007AA06A92000FFF70DFE0590002805D1E4
:020000040800F2
:205800003378002BB7D1002017B0F0BD07990AA8FFF74AFB002864D1019B079A934228D89A
:205820000F270B9E0B9B9A783A40082A00D1A2E00AA8FFF7E1FA0B9B01939E42F2D101234E
:205840005B420193079B0293029A019B934210D8A368039306AB1B7804930E9B1E68A36835
:20586000002E02D0039A9A420CD0039A9A4200D07EE706AB19782000FFF7E8FD002800D0F0
:2058800076E7C0E733681F68002F08D0049B029A31002000B8470028B5D0B668DFE79F68B8
:2058A00005987B783A781B021343029A9A42F2D17268390010A8FFF783FA73683F221493D7
:2058C00033000C331593BB789343802B01D1331D1493012310AA337304992000FFF71AFEE2
:2058E000D9E730210B9A93780B40202B25D10F9B02930E9B03930399029B8B4216D106AB3F
:20590000991C954210D0002D0CD0AB7A6E7A08881B023343984205D0E368002B00D1184B89
:20592000E36070E700230B8015000F9106AB19780AAA2000FFF7EEFDA0E7002BF6D10C9856
:205940003F28F3D81F33410918401E3B834008AA8900885803438B50E8E7402530E79E00E0
:205960007658013605D0E368002B00D1054BE3604AE7013327E71A785B781B02134360E7E1
:20598000ED9B00080E9C000870B50C000600150011002000FFF78FFB2A0030002100FFF757
:2059A000DBFE70BDF0B50B7BCD7A1B022B434D7B85B02D042B438D7B0C002D06694606004C
:2059C00017001D43FFF772FD002803D10024200005B0F0BD227BE37A12021A43637B1B04E1
:2059E0001A43A37B1B06134305D1F368002B00D10B4BF360EAE73022A37829001340684677
:205A00003A00202B09D1FFF7BFFF040069463000FFF76CFD0028DAD1D8E7FFF79DFEF4E733
:205A2000B09B000837B50C006946FFF747FC00280BD0019B009DDA0769085B080A43ED0701
:205A400004D5D243DB43226063603EBD2260FBE773B50E00694604001500FFF7E3FF002898
:205A60002ED0337AF2791B021343082B0ED1009B019A2B606A600099994202D1019B934248
:205A80001ED0E368002B19D10E4B17E0042B03D1009B2B60DA17EEE7022B04D16B460022A4
:205AA0009B5E2B80F6E7012B04D16B461B785BB22B70EFE7E368002B00D1034B0020E360AA
:205AC00076BDC046DB9B0008C99B000813B504220C0001A9FFF700FB002801D0019B2360F6
:205AE00016BD10B51100FFF7F1FF10BD13B508220C006946FFF7F0FA002803D0009A019B8C
:205B00002260636016BD10B51100FFF7EFFF10BD10B54468A31843600023934201D101202C
:205B200010BDC85CE0540133F7E730B5030084783025002087B00A002540854216D0987971
:205B4000597900020843000400141118202D04D1088843425841C0B208E0302DF8D0102D59
:205B600006D1002804D001200B78584007B030BD3F2120008843011E12D10F310C40052C68
:205B800001D11088E5E7062C01D11078E1E7092C04D1187ADA7900021043DAE7072C0DD066
:205BA000D9791B7A1B020B43002188B2834214D9481C515C00291CD10100F6E7187BD97A9B
:205BC00000020843597B09040843997B090601436846FFF7F5F8002801D10120C6E70499EF
:205BE0000198FFF7A2FF0028C0D06846FFF704F9F1E70020BAE70000034B4160036000230E
:020000040800F2
:205C00008260C36003617047115B000870B5066804001500002E15D0C368D318826893425C
:205C200006D90369002B00D1094B0020236170BD2A00B047002805D12369002B00D1054B01
:205C40002361F4E7E36801205D19E560EFE7C046EF9C00085B9C0008F0B585B0002B08D172
:205C60007F2A06D801A90A700122FFF7CFFF05B0F0BD80256D420024AC4601A96646D5B2E9
:205C80002E436654D2095E0632431700DB09661C1F4304D17F231D400D553200E5E73400DE
:205CA000ECE7000010B50B7ACC791B022343012B05D1117800230A00FFF7CEFF11E0022B66
:205CC00001D11188F6E7042B01D11168F2E7082B01D10ACAEFE70369002B00D1014B036162
:205CE000002010BDC99B00080B7A10B51400CA791B021343012B05D10022A256D317FFF73B
:205D0000ABFF12E0022B02D10023E25EF6E7042B01D12268F2E7082B01D10CCCEFE7036924
:205D2000002B00D1014B0361002010BDC99B000870B514001D1E06DA24196D41E243EB43CC
:205D4000FFF78AFF70BD24196D4122002B00F7E70B7A10B51400CA791B021343012B05D16B
:205D60000022A256D317FFF7E3FF12E0022B02D10023E25EF6E7042B01D12268F2E7082B7E
:205D800001D10CCCEFE70369002B00D1014B0361002010BDC99B000807B50B6801A91A0A15
:205DA0004A701A0C0B708A701B0E0422CB70FFF72DFF0EBD10B51100FFF7EEFF10BD13B5C9
:205DC0000CC969466C460A70110A6170110C120EE2701A0A62711A0CA1702371A2711B0E9A
:205DE00069460822E371FFF711FF16BD10B51100FFF7E5FF10BD10B5530FD2000A43FFF7E4
:205E00002BFF10BD0F2310B5040088781840092812D8FAF779F9181818051A0F0F0F110F06
:205E200005234A7808781202024319002000FFF7E2FF07E00223F4E72369002B00D1044BD1
:205E40000020236110BD0023EBE70123E9E7C0462B9B0008F0B517008A780C003F231100D7
:205E60008BB005009943402900D100E1802901D000292DD10F23864913409B005B586179CE
:205E80000293A3791B020B431EB2BE19002B0CD130231A4004ABDE1C102A1ED1390020005F
:205EA000FFF743FE012358403070A2783F2311009943802905D13F683800431E984104AB9F
:205EC000D87030231340102B2AD009D8002B1FD02B69002B22D16F4B20E001233370E4E7A6
:205EE000202B22D0302BF3D16378217832881B020B439A4217D121002800FFF783FF002800
:205F000000D1B0E03A0021002800029B984750E0002FF0D12B69002B00D15F4B2B61A2E0B9
:205F20003378002BE7D1012043E0A37960791B02034312D033880193019B002BF3D08029D3
:205F400010D0A37A617A1B020B430199994209D92B69002BE2D1514BE0E7A37A607A1B02BE
:205F60000343E8E70F26002332400393042A63D86278237812021A4302212800FFF73BFFE2
:205F8000002800D16FE0A3781E40032E13D1019B9E00320000232800FFF75EFE002862D0C8
:205FA000002329680393994225D132002800FFF72DFE0BB0F0BD042E02D1019BDE00E8E795
:205FC00000261422002105A802F05BF80397039A210005A8029B98470028EAD0237AE279F7
:205FE0001B021343039A0136D3180393019BB342EDD8089ECDE73A0021002800029B98472A
:020000040800F2
:20600000002830D0237AE2791B021343FF18039B01330393039A019B9342ECD883E7237A95
:20602000E2791B021343FF18039B01330393039A019B934200D876E721002800FFF7E2FEB1
:20604000002810D0A3783F211A008A43802A0CD13340053B012B08D83A6821002800029B08
:2060600098470028DBD10020A3E73A00F5E73B683A1D002B00D156E721009847002800D082
:2060800051E72B69002B00D1054B2B6191E7C046789C00082B9B00080E9C0008A09C0008FE
:2060A000B89C0008F0B587B005006846FEF788FE002802D1012007B0F0BD0F263F270199C5
:2060C0008B783340082B21D1049B1C68002C05D16846FEF791FE0028F1D1EBE723685A68C5
:2060E000002A06D021002800904700280CD10020E1E79968221D8B78BB43802B00D062680D
:206100002800FFF7A7FEF0E7A468DFE7049A2800FFF7A0FE0028DBD1E9E770B500230400C9
:206120000E001500FFF798FD002804D02A0031002000FFF76BFD70BD0B0010B511001A7A3A
:20614000DC7912022243FFF7E8FF10BD10B50C00237A1100E2791B021343A2783F24A24318
:20616000802A01D101235B420A1E05D000229A4202D08C5C002C02D1FFF7CFFF10BD01326A
:20618000F5E7000070B50D00111E14D03F22AB7893430A88002B0DD12B7AEE791B02941C10
:2061A00033439C4206D90369002B00D1034B0361002070BD0231FFF7B0FFFAE7C79C000821
:2061C000F0B5170089B0019114220021040003A801F057FF3A00019903A8FFF763FF079B72
:2061E000002832D00026069D33002A002000FFF733FDB04206D02168B14205D12A002000A5
:20620000FFF704FD09B0F0BDE368A268EB18934206D92369002B00D10F4B23610020F1E7B7
:20622000636803913A00019903A80493059506960796FFF737FFE368069A9B18E360049B6A
:2062400001936360079B954201D12361DAE7002BE3D1024BE1E7C046EF9C0008DB9C00084B
:2062600010B50B7BCC7A1B021C434B7B897B1B0423430906194306D10369002B00D1034BCA
:206280000361002010BDFFF79BFFFBE7B09B000870B505001600FFF7B5FD041E09D12A6971
:2062A000002A00D10B4A0C490C4801F09BFF200070BD33681A685968914205D206490848E6
:2062C00001F090FF0024F2E799682800FFF725FF0400ECE7ED950008FB9C0008659D0008F4
:2062E0007E9D000813688268596870B50500914205D20A4802F004F80024200070BD1A6056
:206300009968FEF7E9FE041EF7D1EA68002A00D1034A0449044801F065FFEEE7159D00089F
:20632000ED950008FB9C00084C9D0008F0B5FF26170097B000900191302200210AA801F0E3
:20634000A0FE234D32000021280001F09AFE214C214BA56006AD3A00019928006660149331
:206360001594FEF7F5FE0AAA1C492800FFF70CFB061E0AD1EA68002A00D1194A19491A48DB
:2063800001F030FF300017B0F0BD2168A06802AEFDF70AFF2268A1683000FEF7D9FE2B0041
:2063A00007CE07C3326811491A60009A2800FFF7EBFA061E06D1EA68002A00D1084A094947
:2063C0000B48DDE70B490C4801F00CFFDAE7C0462805002028060020E56200085BA7000847
:2063E000ED950008B79D0008E69D00082A9F00080C9E0008CF9D00083A9E00081FB504007D
:020000040800F2
:206400006846FEF7A5FE220008496846FFF7BCFA041E07D1039A002A00D1054A05490648EC
:2064200001F0E0FE200004B010BDC0465BA70008ED950008B79D0008609E0008F0B50C003F
:206440001E4E89B0FF2200210700300001F019FEFF22310003A8FFF7CFFB2200184903A82B
:20646000FFF720FE019000280ED00F23069C25001D4012D1FF2C12D91249134801F0B2FECB
:206480000195019809B0F0BD079A002A00D10F4A0C490F4801F0A6FEF3E70134E7E7FF2332
:2064A0000C4D210030006B60AE602C60FDF766FE094B220028C709490948EBE74006002035
:2064C000ABA20008D29E0008879E0008ED950008659D00083406002091620008E89E00084B
:2064E000AE9E000810B5140086B00A00010001A8FFF782FB2200094901A8FFF7D3FD002807
:206500000AD1059A002A00D1054A0649064801F069FE002006B010BD0498FBE75BA7000897
:20652000ED950008D29E0008659D000810B58AB00A00010004A8FEF743FC3F24099B0393C8
:206540001B78002B21D0059B21485A78197812020A4313001F4901F045FE059A91780B005D
:20656000A34304D01C4A1D4801F03CFE0DE0137AD1791B020B43082B0ED1089B18481A68A5
:206580005B680092019301F02DFE04A8FEF734FC0028D3D10AB010BD042B04D1089B1148D2
:2065A00019680A00E0E7022B05D1089B0E48198803930A00D8E7012B05D1089B0B48197804
:2065C00003930A00D0E70A490A4801F00BFEDCE79FA80008B4A7000888A70008BBA80008AE
:2065E000F4A800080FA9000827A900083FA900089CA7000857A9000870B50500064C074851
:20660000210001F0EFFD29000548FFF78FFF2100044801F0E7FD70BDB4A7000834A80008CC
:206620001FA70008AD9A000870B50500064C0748210001F0D7FD29000548FFF777FF210089
:20664000044801F0CFFD70BDB4A70008CBA70008ABA20008AD9A000810B5074C07482100FB
:2066600001F0C0FD06490748FFF760FF2100064801F0B8FD10BDC046B4A7000812A800086C
:206680000C00002005A20008AD9A000810B5074C0748210001F0A6FD06490748FFF746FFDB
:2066A0002100064801F09EFD10BDC046B4A700087AA800080B0400207DA20008AD9A0008DA
:2066C00070B50F4D8AB029000E4801F08BFD6A460D4B43CB43C243CB43C243CB43C20B4E6D
:2066E0001B68694613603000FDF7E0FF69463000FFF71CFF2900064801F074FD0AB070BD42
:20670000B4A70008E8A70008D490000805A20008AD9A000837B50A4C0A48210001F062FD10
:206720000023094D01A928000193FDF7BFFF280001A9FFF7FBFE2100044801F053FD37BD65
:20674000B4A700084DA800087DA20008AD9A000810B5FFF781FFFFF7B3FFFFF797FFFFF7FE
:20676000D9FF024801F0CCFD10BDC046E4990008802010B50121400501F0FCF8012000F023
:206780006DFE012000F060FE002001F00FF8012000F0CAFF012001F011F90028FAD00020FF
:2067A00000F0E0FF192001F009F90128FAD0A02180208903000200F0C5FF012000F0D2FF66
:2067C000192001F0FBF80028FAD0022000F0DCFF00F0E4FF0828FBD110BD000010B510222A
:2067E0002821024800F086FB10BDC0460030014070B5031C142800DD14235AB2023201DAA2
:020000040800F2
:20680000204B1B78DBB29A1CD2B20F2A34D819004022702455251F2612310A43D2B2190073
:206820000E39032908D818006021702455251F260E3001430A43D2B219001239022907D858
:2068400060217C245D250F260B330B431A43D2B211210D4800F04EFB320013210A4800F08B
:2068600049FB2A005A21084800F044FB22005C21054800F03FFB70BD0024250026002200DC
